{"abi":[{"type":"function","name":"boo","inputs":[],"outputs":[{"name":"","type":"bool","internalType":"bool"}],"stateMutability":"view"},{"type":"function","name":"u","inputs":[],"outputs":[{"name":"","type":"uint256","internalType":"uint256"}],"stateMutability":"view"},{"type":"function","name":"u256","inputs":[],"outputs":[{"name":"","type":"uint256","internalType":"uint256"}],"stateMutability":"view"},{"type":"function","name":"u8","inputs":[],"outputs":[{"name":"","type":"uint8","internalType":"uint8"}],"stateMutability":"view"}],"bytecode":{"object":"0x6000805461ffff19166101011790556101c8600155607b600255600380546001600160601b0319166b68656c6c6f776f726c6456b51790557f68656c6c6f776f726c642020202020202020202020202020202020202020202060045560c0604052600c60809081526b12195b1b1bcb0815dbdc9b1960a21b60a0526005906100879082610139565b5034801561009457600080fd5b506101f7565b634e487b7160e01b600052604160045260246000fd5b600181811c908216806100c457607f821691505b6020821081036100e457634e487b7160e01b600052602260045260246000fd5b50919050565b601f82111561013457806000526020600020601f840160051c810160208510156101115750805b601f840160051c820191505b81811015610131576000815560010161011d565b50505b505050565b81516001600160401b038111156101525761015261009a565b6101668161016084546100b0565b846100ea565b6020601f82116001811461019a57600083156101825750848201515b600019600385901b1c1916600184901b178455610131565b600084815260208120601f198516915b828110156101ca57878501518255602094850194600190920191016101aa565b50848210156101e85786840151600019600387901b60f8161c191681555b50505050600190811b01905550565b60e1806102056000396000f3fe6080604052348015600f57600080fd5b506004361060465760003560e01c8063459b1acf14604b5780634b3df200146066578063ab3a58a3146081578063c6a898c51460a3575b600080fd5b605360015481565b6040519081526020015b60405180910390f35b60005460729060ff1681565b6040519015158152602001605d565b600054609290610100900460ff1681565b60405160ff9091168152602001605d565b60536002548156fea26469706673582212203fd1f755793ac15f36521da7972fc8eaeffc8197c5861e92cc21cffc05b389fe64736f6c634300081a0033","linkReferences":{}},"methodIdentifiers":{"boo()":"4b3df200","u()":"c6a898c5","u256()":"459b1acf","u8()":"ab3a58a3"},"id":0}