{"abi":[{"type":"function","name":"x","inputs":[],"outputs":[{"name":"","type":"uint8","internalType":"uint8"}],"stateMutability":"view"},{"type":"function","name":"y","inputs":[],"outputs":[{"name":"","type":"uint8","internalType":"uint8"}],"stateMutability":"view"}],"bytecode":{"object":"0x6080604052348015600f57600080fd5b50609180601d6000396000f3fe6080604052348015600f57600080fd5b506004361060325760003560e01c80630c55699c146037578063a56dfe4a146054575b600080fd5b603e600181565b60405160ff909116815260200160405180910390f35b603e60048156fea2646970667358221220798d5014fb44e94b8a5e94c6fea79872a997c56767075747dff141b6c46f8fbd64736f6c634300081a0033","linkReferences":{}},"methodIdentifiers":{"x()":"0c55699c","y()":"a56dfe4a"},"id":1}