{"abi":[{"type":"function","name":"arr","inputs":[{"name":"","type":"uint256","internalType":"uint256"}],"outputs":[{"name":"","type":"uint256","internalType":"uint256"}],"stateMutability":"view"},{"type":"function","name":"arr2","inputs":[{"name":"","type":"uint256","internalType":"uint256"}],"outputs":[{"name":"","type":"uint256","internalType":"uint256"}],"stateMutability":"view"},{"type":"function","name":"examples","inputs":[],"outputs":[],"stateMutability":"nonpayable"},{"type":"function","name":"get","inputs":[{"name":"i","type":"uint256","internalType":"uint256"}],"outputs":[{"name":"","type":"uint256","internalType":"uint256"}],"stateMutability":"view"},{"type":"function","name":"getArray","inputs":[],"outputs":[{"name":"","type":"uint256[]","internalType":"uint256[]"}],"stateMutability":"view"},{"type":"function","name":"getlength","inputs":[],"outputs":[{"name":"","type":"uint256","internalType":"uint256"}],"stateMutability":"view"},{"type":"function","name":"myFixedSizeArr","inputs":[{"name":"","type":"uint256","internalType":"uint256"}],"outputs":[{"name":"","type":"uint256","internalType":"uint256"}],"stateMutability":"view"},{"type":"function","name":"pop","inputs":[],"outputs":[],"stateMutability":"nonpayable"},{"type":"function","name":"push","inputs":[{"name":"i","type":"uint256","internalType":"uint256"}],"outputs":[],"stateMutability":"nonpayable"},{"type":"function","name":"remove","inputs":[{"name":"index","type":"uint256","internalType":"uint256"}],"outputs":[],"stateMutability":"nonpayable"}],"bytecode":{"object":"0x60e060405260016080818152600260a052600360c081905260209291906031565b50348015602c57600080fd5b50608f565b828054828255906000526020600020908101928215606e579160200282015b82811115606e578251829060ff169055916020019190600101906050565b506078929150607c565b5090565b5b8082111560785760008155600101607d565b6103768061009e6000396000f3fe608060405234801561001057600080fd5b506004361061009e5760003560e01c8063959ac48411610066578063959ac4841461010c578063a16d35981461014c578063a4ece52c14610154578063d504ea1d1461015c578063edf0099b1461017157600080fd5b8063335d00c2146100a357806338a067ce146100ad5780634cc82215146100d357806371e5ee5f146100e65780639507d39a146100f9575b600080fd5b6100ab610184565b005b6100c06100bb3660046102b8565b6101a8565b6040519081526020015b60405180910390f35b6100ab6100e13660046102b8565b6101bf565b6100c06100f43660046102b8565b6101e0565b6100c06101073660046102b8565b610201565b6100ab61011a3660046102b8565b600080546001810182559080527f290decd9548b62a8d60345a988386fc84ba6bc95484008f6362f93160ef3e5630155565b6000546100c0565b6100ab610227565b610164610250565b6040516100ca91906102d1565b6100c061017f3660046102b8565b6102a8565b60408051600580825260c082019092526000916020820160a0803683375050505050565b600281600a81106101b857600080fd5b0154905081565b600081815481106101d2576101d2610314565b600091825260208220015550565b600081815481106101f057600080fd5b600091825260209091200154905081565b600080828154811061021557610215610314565b90600052602060002001549050919050565b60008054806102385761023861032a565b60019003818190600052602060002001600090559055565b6060600080548060200260200160405190810160405280929190818152602001828054801561029e57602002820191906000526020600020905b81548152602001906001019080831161028a575b5050505050905090565b600181815481106101f057600080fd5b6000602082840312156102ca57600080fd5b5035919050565b602080825282518282018190526000918401906040840190835b818110156103095783518352602093840193909201916001016102eb565b509095945050505050565b634e487b7160e01b600052603260045260246000fd5b634e487b7160e01b600052603160045260246000fdfea264697066735822122020d1db2c47ee341256181657d53e581d3b01a7500ec4f11ba07f787bd16d78f564736f6c634300081a0033","linkReferences":{}},"methodIdentifiers":{"arr(uint256)":"71e5ee5f","arr2(uint256)":"edf0099b","examples()":"335d00c2","get(uint256)":"9507d39a","getArray()":"d504ea1d","getlength()":"a16d3598","myFixedSizeArr(uint256)":"38a067ce","pop()":"a4ece52c","push(uint256)":"959ac484","remove(uint256)":"4cc82215"},"id":0}